{
  "contractName": "DominionDAO",
  "abi": [
    {
      "anonymous": false,
      "inputs": [
        {
          "indexed": true,
          "internalType": "address",
          "name": "initiator",
          "type": "address"
        },
        {
          "indexed": false,
          "internalType": "bytes32",
          "name": "role",
          "type": "bytes32"
        },
        {
          "indexed": false,
          "internalType": "string",
          "name": "message",
          "type": "string"
        },
        {
          "indexed": true,
          "internalType": "address",
          "name": "beneficiary",
          "type": "address"
        },
        {
          "indexed": false,
          "internalType": "uint256",
          "name": "amount",
          "type": "uint256"
        }
      ],
      "name": "Action",
      "type": "event"
    },
    {
      "anonymous": false,
      "inputs": [
        {
          "indexed": true,
          "internalType": "bytes32",
          "name": "role",
          "type": "bytes32"
        },
        {
          "indexed": true,
          "internalType": "bytes32",
          "name": "previousAdminRole",
          "type": "bytes32"
        },
        {
          "indexed": true,
          "internalType": "bytes32",
          "name": "newAdminRole",
          "type": "bytes32"
        }
      ],
      "name": "RoleAdminChanged",
      "type": "event"
    },
    {
      "anonymous": false,
      "inputs": [
        {
          "indexed": true,
          "internalType": "bytes32",
          "name": "role",
          "type": "bytes32"
        },
        {
          "indexed": true,
          "internalType": "address",
          "name": "account",
          "type": "address"
        },
        {
          "indexed": true,
          "internalType": "address",
          "name": "sender",
          "type": "address"
        }
      ],
      "name": "RoleGranted",
      "type": "event"
    },
    {
      "anonymous": false,
      "inputs": [
        {
          "indexed": true,
          "internalType": "bytes32",
          "name": "role",
          "type": "bytes32"
        },
        {
          "indexed": true,
          "internalType": "address",
          "name": "account",
          "type": "address"
        },
        {
          "indexed": true,
          "internalType": "address",
          "name": "sender",
          "type": "address"
        }
      ],
      "name": "RoleRevoked",
      "type": "event"
    },
    {
      "inputs": [],
      "name": "DEFAULT_ADMIN_ROLE",
      "outputs": [
        {
          "internalType": "bytes32",
          "name": "",
          "type": "bytes32"
        }
      ],
      "stateMutability": "view",
      "type": "function",
      "constant": true
    },
    {
      "inputs": [],
      "name": "daoBalance",
      "outputs": [
        {
          "internalType": "uint256",
          "name": "",
          "type": "uint256"
        }
      ],
      "stateMutability": "view",
      "type": "function",
      "constant": true
    },
    {
      "inputs": [
        {
          "internalType": "bytes32",
          "name": "role",
          "type": "bytes32"
        }
      ],
      "name": "getRoleAdmin",
      "outputs": [
        {
          "internalType": "bytes32",
          "name": "",
          "type": "bytes32"
        }
      ],
      "stateMutability": "view",
      "type": "function",
      "constant": true
    },
    {
      "inputs": [
        {
          "internalType": "bytes32",
          "name": "role",
          "type": "bytes32"
        },
        {
          "internalType": "address",
          "name": "account",
          "type": "address"
        }
      ],
      "name": "grantRole",
      "outputs": [],
      "stateMutability": "nonpayable",
      "type": "function"
    },
    {
      "inputs": [
        {
          "internalType": "bytes32",
          "name": "role",
          "type": "bytes32"
        },
        {
          "internalType": "address",
          "name": "account",
          "type": "address"
        }
      ],
      "name": "hasRole",
      "outputs": [
        {
          "internalType": "bool",
          "name": "",
          "type": "bool"
        }
      ],
      "stateMutability": "view",
      "type": "function",
      "constant": true
    },
    {
      "inputs": [
        {
          "internalType": "bytes32",
          "name": "role",
          "type": "bytes32"
        },
        {
          "internalType": "address",
          "name": "account",
          "type": "address"
        }
      ],
      "name": "renounceRole",
      "outputs": [],
      "stateMutability": "nonpayable",
      "type": "function"
    },
    {
      "inputs": [
        {
          "internalType": "bytes32",
          "name": "role",
          "type": "bytes32"
        },
        {
          "internalType": "address",
          "name": "account",
          "type": "address"
        }
      ],
      "name": "revokeRole",
      "outputs": [],
      "stateMutability": "nonpayable",
      "type": "function"
    },
    {
      "inputs": [
        {
          "internalType": "bytes4",
          "name": "interfaceId",
          "type": "bytes4"
        }
      ],
      "name": "supportsInterface",
      "outputs": [
        {
          "internalType": "bool",
          "name": "",
          "type": "bool"
        }
      ],
      "stateMutability": "view",
      "type": "function",
      "constant": true
    },
    {
      "inputs": [
        {
          "internalType": "string",
          "name": "title",
          "type": "string"
        },
        {
          "internalType": "string",
          "name": "description",
          "type": "string"
        },
        {
          "internalType": "address",
          "name": "beneficiary",
          "type": "address"
        },
        {
          "internalType": "uint256",
          "name": "amount",
          "type": "uint256"
        }
      ],
      "name": "createProposal",
      "outputs": [
        {
          "components": [
            {
              "internalType": "uint256",
              "name": "id",
              "type": "uint256"
            },
            {
              "internalType": "uint256",
              "name": "amount",
              "type": "uint256"
            },
            {
              "internalType": "uint256",
              "name": "duration",
              "type": "uint256"
            },
            {
              "internalType": "uint256",
              "name": "upvotes",
              "type": "uint256"
            },
            {
              "internalType": "uint256",
              "name": "downvotes",
              "type": "uint256"
            },
            {
              "internalType": "string",
              "name": "title",
              "type": "string"
            },
            {
              "internalType": "string",
              "name": "description",
              "type": "string"
            },
            {
              "internalType": "bool",
              "name": "passed",
              "type": "bool"
            },
            {
              "internalType": "bool",
              "name": "paid",
              "type": "bool"
            },
            {
              "internalType": "address payable",
              "name": "beneficiary",
              "type": "address"
            },
            {
              "internalType": "address",
              "name": "proposer",
              "type": "address"
            },
            {
              "internalType": "address",
              "name": "executor",
              "type": "address"
            }
          ],
          "internalType": "struct DominionDAO.ProposalStruct",
          "name": "",
          "type": "tuple"
        }
      ],
      "stateMutability": "nonpayable",
      "type": "function"
    },
    {
      "inputs": [
        {
          "internalType": "uint256",
          "name": "proposalId",
          "type": "uint256"
        },
        {
          "internalType": "bool",
          "name": "choosen",
          "type": "bool"
        }
      ],
      "name": "performVote",
      "outputs": [
        {
          "components": [
            {
              "internalType": "address",
              "name": "voter",
              "type": "address"
            },
            {
              "internalType": "uint256",
              "name": "timestamp",
              "type": "uint256"
            },
            {
              "internalType": "bool",
              "name": "choosen",
              "type": "bool"
            }
          ],
          "internalType": "struct DominionDAO.VotedStruct",
          "name": "",
          "type": "tuple"
        }
      ],
      "stateMutability": "nonpayable",
      "type": "function"
    },
    {
      "inputs": [
        {
          "internalType": "uint256",
          "name": "proposalId",
          "type": "uint256"
        }
      ],
      "name": "payBeneficiary",
      "outputs": [
        {
          "internalType": "uint256",
          "name": "",
          "type": "uint256"
        }
      ],
      "stateMutability": "nonpayable",
      "type": "function"
    },
    {
      "inputs": [],
      "name": "contribute",
      "outputs": [
        {
          "internalType": "uint256",
          "name": "",
          "type": "uint256"
        }
      ],
      "stateMutability": "payable",
      "type": "function",
      "payable": true
    },
    {
      "inputs": [],
      "name": "getProposals",
      "outputs": [
        {
          "components": [
            {
              "internalType": "uint256",
              "name": "id",
              "type": "uint256"
            },
            {
              "internalType": "uint256",
              "name": "amount",
              "type": "uint256"
            },
            {
              "internalType": "uint256",
              "name": "duration",
              "type": "uint256"
            },
            {
              "internalType": "uint256",
              "name": "upvotes",
              "type": "uint256"
            },
            {
              "internalType": "uint256",
              "name": "downvotes",
              "type": "uint256"
            },
            {
              "internalType": "string",
              "name": "title",
              "type": "string"
            },
            {
              "internalType": "string",
              "name": "description",
              "type": "string"
            },
            {
              "internalType": "bool",
              "name": "passed",
              "type": "bool"
            },
            {
              "internalType": "bool",
              "name": "paid",
              "type": "bool"
            },
            {
              "internalType": "address payable",
              "name": "beneficiary",
              "type": "address"
            },
            {
              "internalType": "address",
              "name": "proposer",
              "type": "address"
            },
            {
              "internalType": "address",
              "name": "executor",
              "type": "address"
            }
          ],
          "internalType": "struct DominionDAO.ProposalStruct[]",
          "name": "props",
          "type": "tuple[]"
        }
      ],
      "stateMutability": "view",
      "type": "function",
      "constant": true
    },
    {
      "inputs": [
        {
          "internalType": "uint256",
          "name": "proposalId",
          "type": "uint256"
        }
      ],
      "name": "getProposal",
      "outputs": [
        {
          "components": [
            {
              "internalType": "uint256",
              "name": "id",
              "type": "uint256"
            },
            {
              "internalType": "uint256",
              "name": "amount",
              "type": "uint256"
            },
            {
              "internalType": "uint256",
              "name": "duration",
              "type": "uint256"
            },
            {
              "internalType": "uint256",
              "name": "upvotes",
              "type": "uint256"
            },
            {
              "internalType": "uint256",
              "name": "downvotes",
              "type": "uint256"
            },
            {
              "internalType": "string",
              "name": "title",
              "type": "string"
            },
            {
              "internalType": "string",
              "name": "description",
              "type": "string"
            },
            {
              "internalType": "bool",
              "name": "passed",
              "type": "bool"
            },
            {
              "internalType": "bool",
              "name": "paid",
              "type": "bool"
            },
            {
              "internalType": "address payable",
              "name": "beneficiary",
              "type": "address"
            },
            {
              "internalType": "address",
              "name": "proposer",
              "type": "address"
            },
            {
              "internalType": "address",
              "name": "executor",
              "type": "address"
            }
          ],
          "internalType": "struct DominionDAO.ProposalStruct",
          "name": "",
          "type": "tuple"
        }
      ],
      "stateMutability": "view",
      "type": "function",
      "constant": true
    },
    {
      "inputs": [
        {
          "internalType": "uint256",
          "name": "proposalId",
          "type": "uint256"
        }
      ],
      "name": "getVotesOf",
      "outputs": [
        {
          "components": [
            {
              "internalType": "address",
              "name": "voter",
              "type": "address"
            },
            {
              "internalType": "uint256",
              "name": "timestamp",
              "type": "uint256"
            },
            {
              "internalType": "bool",
              "name": "choosen",
              "type": "bool"
            }
          ],
          "internalType": "struct DominionDAO.VotedStruct[]",
          "name": "",
          "type": "tuple[]"
        }
      ],
      "stateMutability": "view",
      "type": "function",
      "constant": true
    },
    {
      "inputs": [],
      "name": "getStakeholderVotes",
      "outputs": [
        {
          "internalType": "uint256[]",
          "name": "",
          "type": "uint256[]"
        }
      ],
      "stateMutability": "view",
      "type": "function",
      "constant": true
    },
    {
      "inputs": [],
      "name": "getStakeholderBalance",
      "outputs": [
        {
          "internalType": "uint256",
          "name": "",
          "type": "uint256"
        }
      ],
      "stateMutability": "view",
      "type": "function",
      "constant": true
    },
    {
      "inputs": [],
      "name": "isStakeholder",
      "outputs": [
        {
          "internalType": "bool",
          "name": "",
          "type": "bool"
        }
      ],
      "stateMutability": "view",
      "type": "function",
      "constant": true
    },
    {
      "inputs": [],
      "name": "getContributorBalance",
      "outputs": [
        {
          "internalType": "uint256",
          "name": "",
          "type": "uint256"
        }
      ],
      "stateMutability": "view",
      "type": "function",
      "constant": true
    },
    {
      "inputs": [],
      "name": "isContributor",
      "outputs": [
        {
          "internalType": "bool",
          "name": "",
          "type": "bool"
        }
      ],
      "stateMutability": "view",
      "type": "function",
      "constant": true
    },
    {
      "inputs": [],
      "name": "getBalance",
      "outputs": [
        {
          "internalType": "uint256",
          "name": "",
          "type": "uint256"
        }
      ],
      "stateMutability": "view",
      "type": "function",
      "constant": true
    }
  ],
  "bytecode": "0x6101006040527fa0bb1af1c90aa52ed052b92714ff0087008cc720049bf1af77cca2600b31e80c6080908152507ff4bb84e1768dd286358a736d195a0b228621173f655a73b89bf8b191ed0ba07d60a090815250670de0b6b3a764000060c090815250607863ffffffff1660e09063ffffffff1681525034801561008257600080fd5b50600160008190555060805160a05160c05160e051613f1d610111600039600061114501526000611dd80152600081816105ea0152818161087b01528181610f1501528181610fe9015281816111ce0152818161155d0152818161169c0152818161192901528181611d5e01528181611e4601526120090152600081816109f40152611ec70152613f1d6000f3fe60806040526004361061012a5760003560e01c80637cdc2eb7116100ab578063bd9728161161006f578063bd9728161461042e578063c02146ac14610459578063c7f758a814610484578063d547741f146104c1578063d6cc8016146104ea578063d7bb99ba146105155761012a565b80637cdc2eb71461032157806391d148541461035e578063a217fddf1461039b578063a22f1db7146103c6578063b31f111c146103f15761012a565b806336568abe116100f257806336568abe1461023a5780633cdb48c21461026357806362564c481461028e57806369a136dc146102b95780636a80d84d146102f65761012a565b806301ffc9a71461012f578063119c37c81461016c57806312065fe0146101a9578063248a9ca3146101d45780632f2ff15d14610211575b600080fd5b34801561013b57600080fd5b5061015660048036038101906101519190612a17565b610533565b6040516101639190612a5f565b60405180910390f35b34801561017857600080fd5b50610193600480360381019061018e9190612ab0565b6105ad565b6040516101a09190612aec565b60405180910390f35b3480156101b557600080fd5b506101be6108c9565b6040516101cb9190612aec565b60405180910390f35b3480156101e057600080fd5b506101fb60048036038101906101f69190612b3d565b610910565b6040516102089190612b79565b60405180910390f35b34801561021d57600080fd5b5061023860048036038101906102339190612bf2565b610930565b005b34801561024657600080fd5b50610261600480360381019061025c9190612bf2565b610951565b005b34801561026f57600080fd5b506102786109d4565b6040516102859190612aec565b60405180910390f35b34801561029a57600080fd5b506102a3610aa2565b6040516102b09190612ee6565b60405180910390f35b3480156102c557600080fd5b506102e060048036038101906102db9190612ab0565b610deb565b6040516102ed9190612ff9565b60405180910390f35b34801561030257600080fd5b5061030b610ed8565b6040516103189190612aec565b60405180910390f35b34801561032d57600080fd5b5061034860048036038101906103439190613080565b610fc3565b6040516103559190613232565b60405180910390f35b34801561036a57600080fd5b5061038560048036038101906103809190612bf2565b6114ae565b6040516103929190612a5f565b60405180910390f35b3480156103a757600080fd5b506103b0611519565b6040516103bd9190612b79565b60405180910390f35b3480156103d257600080fd5b506103db611520565b6040516103e89190613303565b60405180910390f35b3480156103fd57600080fd5b5061041860048036038101906104139190613351565b611659565b60405161042591906133d3565b60405180910390f35b34801561043a57600080fd5b506104436119a0565b6040516104509190612aec565b60405180910390f35b34801561046557600080fd5b5061046e6119a6565b60405161047b9190612a5f565b60405180910390f35b34801561049057600080fd5b506104ab60048036038101906104a69190612ab0565b6119ef565b6040516104b89190613232565b60405180910390f35b3480156104cd57600080fd5b506104e860048036038101906104e39190612bf2565b611cab565b005b3480156104f657600080fd5b506104ff611ccc565b60405161050c9190612a5f565b60405180910390f35b61051d611d15565b60405161052a9190612aec565b60405180910390f35b60007f7965db0b000000000000000000000000000000000000000000000000000000007bffffffffffffffffffffffffffffffffffffffffffffffffffffffff1916827bffffffffffffffffffffffffffffffffffffffffffffffffffffffff191614806105a657506105a582612047565b5b9050919050565b60006040518060400160405280601f81526020017f556e617574686f72697a65643a205374616b65686f6c64657273206f6e6c790081525061060f7f0000000000000000000000000000000000000000000000000000000000000000336114ae565b8190610651576040517f08c379a00000000000000000000000000000000000000000000000000000000081526004016106489190613438565b60405180910390fd5b5061065a6120b1565b6000600460008581526020019081526020016000209050806001015460035410156106ba576040517f08c379a00000000000000000000000000000000000000000000000000000000081526004016106b1906134a6565b60405180910390fd5b8060070160019054906101000a900460ff161561070c576040517f08c379a000000000000000000000000000000000000000000000000000000000815260040161070390613512565b60405180910390fd5b8060040154816003015411610756576040517f08c379a000000000000000000000000000000000000000000000000000000000815260040161074d9061357e565b60405180910390fd5b6107888160070160029054906101000a900473ffffffffffffffffffffffffffffffffffffffff168260010154612101565b5060018160070160016101000a81548160ff021916908315150217905550338160090160006101000a81548173ffffffffffffffffffffffffffffffffffffffff021916908373ffffffffffffffffffffffffffffffffffffffff1602179055508060010154600360008282546107ff91906135cd565b925050819055508060070160029054906101000a900473ffffffffffffffffffffffffffffffffffffffff1673ffffffffffffffffffffffffffffffffffffffff163373ffffffffffffffffffffffffffffffffffffffff167fa596782d699d74613fcbf59d33e720baabd313d6be9c95e2268f305430305eb77f000000000000000000000000000000000000000000000000000000000000000084600101546040516108ad92919061364d565b60405180910390a36003549250506108c36121b9565b50919050565b6000600760003373ffffffffffffffffffffffffffffffffffffffff1673ffffffffffffffffffffffffffffffffffffffff16815260200190815260200160002054905090565b600060016000838152602001908152602001600020600101549050919050565b61093982610910565b610942816121c3565b61094c83836121d7565b505050565b6109596122b7565b73ffffffffffffffffffffffffffffffffffffffff168173ffffffffffffffffffffffffffffffffffffffff16146109c6576040517f08c379a00000000000000000000000000000000000000000000000000000000081526004016109bd906136fb565b60405180910390fd5b6109d082826122bf565b5050565b6000604051806060016040528060218152602001613e9860219139610a197f0000000000000000000000000000000000000000000000000000000000000000336114ae565b8190610a5b576040517f08c379a0000000000000000000000000000000000000000000000000000000008152600401610a529190613438565b60405180910390fd5b50600760003373ffffffffffffffffffffffffffffffffffffffff1673ffffffffffffffffffffffffffffffffffffffff1681526020019081526020016000205491505090565b606060025467ffffffffffffffff811115610ac057610abf61371b565b5b604051908082528060200260200182016040528015610af957816020015b610ae6612832565b815260200190600190039081610ade5790505b50905060005b600254811015610de75760046000828152602001908152602001600020604051806101800160405290816000820154815260200160018201548152602001600282015481526020016003820154815260200160048201548152602001600582018054610b6a90613779565b80601f0160208091040260200160405190810160405280929190818152602001828054610b9690613779565b8015610be35780601f10610bb857610100808354040283529160200191610be3565b820191906000526020600020905b815481529060010190602001808311610bc657829003601f168201915b50505050508152602001600682018054610bfc90613779565b80601f0160208091040260200160405190810160405280929190818152602001828054610c2890613779565b8015610c755780601f10610c4a57610100808354040283529160200191610c75565b820191906000526020600020905b815481529060010190602001808311610c5857829003601f168201915b505050505081526020016007820160009054906101000a900460ff161515151581526020016007820160019054906101000a900460ff161515151581526020016007820160029054906101000a900473ffffffffffffffffffffffffffffffffffffffff1673ffffffffffffffffffffffffffffffffffffffff1673ffffffffffffffffffffffffffffffffffffffff1681526020016008820160009054906101000a900473ffffffffffffffffffffffffffffffffffffffff1673ffffffffffffffffffffffffffffffffffffffff1673ffffffffffffffffffffffffffffffffffffffff1681526020016009820160009054906101000a900473ffffffffffffffffffffffffffffffffffffffff1673ffffffffffffffffffffffffffffffffffffffff1673ffffffffffffffffffffffffffffffffffffffff1681525050828281518110610dc957610dc86137ab565b5b60200260200101819052508080610ddf906137da565b915050610aff565b5090565b606060066000838152602001908152602001600020805480602002602001604051908101604052809291908181526020016000905b82821015610ecd57838290600052602060002090600302016040518060600160405290816000820160009054906101000a900473ffffffffffffffffffffffffffffffffffffffff1673ffffffffffffffffffffffffffffffffffffffff1673ffffffffffffffffffffffffffffffffffffffff168152602001600182015481526020016002820160009054906101000a900460ff16151515158152505081526020019060010190610e20565b505050509050919050565b60006040518060400160405280601f81526020017f556e617574686f72697a65643a206e6f742061207374616b65686f6c64657200815250610f3a7f0000000000000000000000000000000000000000000000000000000000000000336114ae565b8190610f7c576040517f08c379a0000000000000000000000000000000000000000000000000000000008152600401610f739190613438565b60405180910390fd5b50600860003373ffffffffffffffffffffffffffffffffffffffff1673ffffffffffffffffffffffffffffffffffffffff1681526020019081526020016000205491505090565b610fcb612832565b6040518060600160405280602f8152602001613eb9602f913961100e7f0000000000000000000000000000000000000000000000000000000000000000336114ae565b8190611050576040517f08c379a00000000000000000000000000000000000000000000000000000000081526004016110479190613438565b60405180910390fd5b50600060026000815480929190611066906137da565b9190505590506000600460008381526020019081526020016000209050818160000181905550338160080160006101000a81548173ffffffffffffffffffffffffffffffffffffffff021916908373ffffffffffffffffffffffffffffffffffffffff16021790555089898260050191906110e29291906128d9565b5087878260060191906110f69291906128d9565b50858160070160026101000a81548173ffffffffffffffffffffffffffffffffffffffff021916908373ffffffffffffffffffffffffffffffffffffffff1602179055508481600101819055507f000000000000000000000000000000000000000000000000000000000000000063ffffffff16426111759190613823565b81600201819055508573ffffffffffffffffffffffffffffffffffffffff163373ffffffffffffffffffffffffffffffffffffffff167fa596782d699d74613fcbf59d33e720baabd313d6be9c95e2268f305430305eb77f0000000000000000000000000000000000000000000000000000000000000000886040516111fc9291906138c5565b60405180910390a38060405180610180016040529081600082015481526020016001820154815260200160028201548152602001600382015481526020016004820154815260200160058201805461125390613779565b80601f016020809104026020016040519081016040528092919081815260200182805461127f90613779565b80156112cc5780601f106112a1576101008083540402835291602001916112cc565b820191906000526020600020905b8154815290600101906020018083116112af57829003601f168201915b505050505081526020016006820180546112e590613779565b80601f016020809104026020016040519081016040528092919081815260200182805461131190613779565b801561135e5780601f106113335761010080835404028352916020019161135e565b820191906000526020600020905b81548152906001019060200180831161134157829003601f168201915b505050505081526020016007820160009054906101000a900460ff161515151581526020016007820160019054906101000a900460ff161515151581526020016007820160029054906101000a900473ffffffffffffffffffffffffffffffffffffffff1673ffffffffffffffffffffffffffffffffffffffff1673ffffffffffffffffffffffffffffffffffffffff1681526020016008820160009054906101000a900473ffffffffffffffffffffffffffffffffffffffff1673ffffffffffffffffffffffffffffffffffffffff1673ffffffffffffffffffffffffffffffffffffffff1681526020016009820160009054906101000a900473ffffffffffffffffffffffffffffffffffffffff1673ffffffffffffffffffffffffffffffffffffffff1673ffffffffffffffffffffffffffffffffffffffff168152505093505050509695505050505050565b60006001600084815260200190815260200160002060000160008373ffffffffffffffffffffffffffffffffffffffff1673ffffffffffffffffffffffffffffffffffffffff16815260200190815260200160002060009054906101000a900460ff16905092915050565b6000801b81565b60606040518060400160405280601f81526020017f556e617574686f72697a65643a206e6f742061207374616b65686f6c646572008152506115827f0000000000000000000000000000000000000000000000000000000000000000336114ae565b81906115c4576040517f08c379a00000000000000000000000000000000000000000000000000000000081526004016115bb9190613438565b60405180910390fd5b50600560003373ffffffffffffffffffffffffffffffffffffffff1673ffffffffffffffffffffffffffffffffffffffff16815260200190815260200160002080548060200260200160405190810160405280929190818152602001828054801561164e57602002820191906000526020600020905b81548152602001906001019080831161163a575b505050505091505090565b61166161295f565b6040518060400160405280601f81526020017f556e617574686f72697a65643a205374616b65686f6c64657273206f6e6c79008152506116c17f0000000000000000000000000000000000000000000000000000000000000000336114ae565b8190611703576040517f08c379a00000000000000000000000000000000000000000000000000000000081526004016116fa9190613438565b60405180910390fd5b506000600460008681526020019081526020016000209050611724816123a1565b83156117495780600301600081548092919061173f906137da565b9190505550611764565b80600401600081548092919061175e906137da565b91905055505b600560003373ffffffffffffffffffffffffffffffffffffffff1673ffffffffffffffffffffffffffffffffffffffff16815260200190815260200160002081600001549080600181540180825580915050600190039060005260206000200160009091909190915055600660008260000154815260200190815260200160002060405180606001604052803373ffffffffffffffffffffffffffffffffffffffff168152602001428152602001861515815250908060018154018082558091505060019003906000526020600020906003020160009091909190915060008201518160000160006101000a81548173ffffffffffffffffffffffffffffffffffffffff021916908373ffffffffffffffffffffffffffffffffffffffff1602179055506020820151816001015560408201518160020160006101000a81548160ff02191690831515021790555050508060070160029054906101000a900473ffffffffffffffffffffffffffffffffffffffff1673ffffffffffffffffffffffffffffffffffffffff163373ffffffffffffffffffffffffffffffffffffffff167fa596782d699d74613fcbf59d33e720baabd313d6be9c95e2268f305430305eb77f0000000000000000000000000000000000000000000000000000000000000000846001015460405161195b92919061394d565b60405180910390a360405180606001604052803373ffffffffffffffffffffffffffffffffffffffff1681526020014281526020018515158152509250505092915050565b60035481565b600080600860003373ffffffffffffffffffffffffffffffffffffffff1673ffffffffffffffffffffffffffffffffffffffff1681526020019081526020016000205411905090565b6119f7612832565b60046000838152602001908152602001600020604051806101800160405290816000820154815260200160018201548152602001600282015481526020016003820154815260200160048201548152602001600582018054611a5890613779565b80601f0160208091040260200160405190810160405280929190818152602001828054611a8490613779565b8015611ad15780601f10611aa657610100808354040283529160200191611ad1565b820191906000526020600020905b815481529060010190602001808311611ab457829003601f168201915b50505050508152602001600682018054611aea90613779565b80601f0160208091040260200160405190810160405280929190818152602001828054611b1690613779565b8015611b635780601f10611b3857610100808354040283529160200191611b63565b820191906000526020600020905b815481529060010190602001808311611b4657829003601f168201915b505050505081526020016007820160009054906101000a900460ff161515151581526020016007820160019054906101000a900460ff161515151581526020016007820160029054906101000a900473ffffffffffffffffffffffffffffffffffffffff1673ffffffffffffffffffffffffffffffffffffffff1673ffffffffffffffffffffffffffffffffffffffff1681526020016008820160009054906101000a900473ffffffffffffffffffffffffffffffffffffffff1673ffffffffffffffffffffffffffffffffffffffff1673ffffffffffffffffffffffffffffffffffffffff1681526020016009820160009054906101000a900473ffffffffffffffffffffffffffffffffffffffff1673ffffffffffffffffffffffffffffffffffffffff1673ffffffffffffffffffffffffffffffffffffffff16815250509050919050565b611cb482610910565b611cbd816121c3565b611cc783836122bf565b505050565b600080600760003373ffffffffffffffffffffffffffffffffffffffff1673ffffffffffffffffffffffffffffffffffffffff1681526020019081526020016000205411905090565b6000803411611d59576040517f08c379a0000000000000000000000000000000000000000000000000000000008152600401611d50906139fb565b60405180910390fd5b611d837f0000000000000000000000000000000000000000000000000000000000000000336114ae565b611ef257600034600760003373ffffffffffffffffffffffffffffffffffffffff1673ffffffffffffffffffffffffffffffffffffffff16815260200190815260200160002054611dd49190613823565b90507f00000000000000000000000000000000000000000000000000000000000000008110611e6c5780600860003373ffffffffffffffffffffffffffffffffffffffff1673ffffffffffffffffffffffffffffffffffffffff16815260200190815260200160002081905550611e6b7f000000000000000000000000000000000000000000000000000000000000000033612536565b5b34600760003373ffffffffffffffffffffffffffffffffffffffff1673ffffffffffffffffffffffffffffffffffffffff1681526020019081526020016000206000828254611ebb9190613823565b92505081905550611eec7f000000000000000000000000000000000000000000000000000000000000000033612536565b50611f9f565b34600760003373ffffffffffffffffffffffffffffffffffffffff1673ffffffffffffffffffffffffffffffffffffffff1681526020019081526020016000206000828254611f419190613823565b9250508190555034600860003373ffffffffffffffffffffffffffffffffffffffff1673ffffffffffffffffffffffffffffffffffffffff1681526020019081526020016000206000828254611f979190613823565b925050819055505b3460036000828254611fb19190613823565b925050819055503073ffffffffffffffffffffffffffffffffffffffff163373ffffffffffffffffffffffffffffffffffffffff167fa596782d699d74613fcbf59d33e720baabd313d6be9c95e2268f305430305eb77f000000000000000000000000000000000000000000000000000000000000000034604051612037929190613a67565b60405180910390a3600354905090565b60007f01ffc9a7000000000000000000000000000000000000000000000000000000007bffffffffffffffffffffffffffffffffffffffffffffffffffffffff1916827bffffffffffffffffffffffffffffffffffffffffffffffffffffffff1916149050919050565b600260005414156120f7576040517f08c379a00000000000000000000000000000000000000000000000000000000081526004016120ee90613aef565b60405180910390fd5b6002600081905550565b6000808373ffffffffffffffffffffffffffffffffffffffff168360405161212890613b40565b60006040518083038185875af1925050503d8060008114612165576040519150601f19603f3d011682016040523d82523d6000602084013e61216a565b606091505b50509050806121ae576040517f08c379a00000000000000000000000000000000000000000000000000000000081526004016121a590613ba1565b60405180910390fd5b600191505092915050565b6001600081905550565b6121d4816121cf6122b7565b612544565b50565b6121e182826114ae565b6122b357600180600084815260200190815260200160002060000160008373ffffffffffffffffffffffffffffffffffffffff1673ffffffffffffffffffffffffffffffffffffffff16815260200190815260200160002060006101000a81548160ff0219169083151502179055506122586122b7565b73ffffffffffffffffffffffffffffffffffffffff168173ffffffffffffffffffffffffffffffffffffffff16837f2f8788117e7eff1d82e926ec794901d17c78024a50270940304540a733656f0d60405160405180910390a45b5050565b600033905090565b6122c982826114ae565b1561239d5760006001600084815260200190815260200160002060000160008373ffffffffffffffffffffffffffffffffffffffff1673ffffffffffffffffffffffffffffffffffffffff16815260200190815260200160002060006101000a81548160ff0219169083151502179055506123426122b7565b73ffffffffffffffffffffffffffffffffffffffff168173ffffffffffffffffffffffffffffffffffffffff16837ff6391f5c32d9c69d2a47ea670b442974b53935d1edc7fd64eb21e047a839171b60405160405180910390a45b5050565b8060070160009054906101000a900460ff16806123c2575042816002015411155b1561241f5760018160070160006101000a81548160ff0219169083151502179055506040517f08c379a000000000000000000000000000000000000000000000000000000000815260040161241690613c0d565b60405180910390fd5b6000600560003373ffffffffffffffffffffffffffffffffffffffff1673ffffffffffffffffffffffffffffffffffffffff1681526020019081526020016000208054806020026020016040519081016040528092919081815260200182805480156124aa57602002820191906000526020600020905b815481526020019060010190808311612496575b5050505050905060005b8151811015612531578181815181106124d0576124cf6137ab565b5b60200260200101518360000154141561251e576040517f08c379a000000000000000000000000000000000000000000000000000000000815260040161251590613c79565b60405180910390fd5b8080612529906137da565b9150506124b4565b505050565b61254082826121d7565b5050565b61254e82826114ae565b6125c55761255b816125c9565b6125698360001c60206125f6565b60405160200161257a929190613d6d565b6040516020818303038152906040526040517f08c379a00000000000000000000000000000000000000000000000000000000081526004016125bc9190613438565b60405180910390fd5b5050565b60606125ef8273ffffffffffffffffffffffffffffffffffffffff16601460ff166125f6565b9050919050565b6060600060028360026126099190613da7565b6126139190613823565b67ffffffffffffffff81111561262c5761262b61371b565b5b6040519080825280601f01601f19166020018201604052801561265e5781602001600182028036833780820191505090505b5090507f300000000000000000000000000000000000000000000000000000000000000081600081518110612696576126956137ab565b5b60200101907effffffffffffffffffffffffffffffffffffffffffffffffffffffffffffff1916908160001a9053507f7800000000000000000000000000000000000000000000000000000000000000816001815181106126fa576126f96137ab565b5b60200101907effffffffffffffffffffffffffffffffffffffffffffffffffffffffffffff1916908160001a9053506000600184600261273a9190613da7565b6127449190613823565b90505b60018111156127e4577f3031323334353637383961626364656600000000000000000000000000000000600f861660108110612786576127856137ab565b5b1a60f81b82828151811061279d5761279c6137ab565b5b60200101907effffffffffffffffffffffffffffffffffffffffffffffffffffffffffffff1916908160001a905350600485901c9450806127dd90613e01565b9050612747565b5060008414612828576040517f08c379a000000000000000000000000000000000000000000000000000000000815260040161281f90613e77565b60405180910390fd5b8091505092915050565b60405180610180016040528060008152602001600081526020016000815260200160008152602001600081526020016060815260200160608152602001600015158152602001600015158152602001600073ffffffffffffffffffffffffffffffffffffffff168152602001600073ffffffffffffffffffffffffffffffffffffffff168152602001600073ffffffffffffffffffffffffffffffffffffffff1681525090565b8280546128e590613779565b90600052602060002090601f016020900481019282612907576000855561294e565b82601f1061292057803560ff191683800117855561294e565b8280016001018555821561294e579182015b8281111561294d578235825591602001919060010190612932565b5b50905061295b9190612998565b5090565b6040518060600160405280600073ffffffffffffffffffffffffffffffffffffffff168152602001600081526020016000151581525090565b5b808211156129b1576000816000905550600101612999565b5090565b600080fd5b600080fd5b60007fffffffff0000000000000000000000000000000000000000000000000000000082169050919050565b6129f4816129bf565b81146129ff57600080fd5b50565b600081359050612a11816129eb565b92915050565b600060208284031215612a2d57612a2c6129b5565b5b6000612a3b84828501612a02565b91505092915050565b60008115159050919050565b612a5981612a44565b82525050565b6000602082019050612a746000830184612a50565b92915050565b6000819050919050565b612a8d81612a7a565b8114612a9857600080fd5b50565b600081359050612aaa81612a84565b92915050565b600060208284031215612ac657612ac56129b5565b5b6000612ad484828501612a9b565b91505092915050565b612ae681612a7a565b82525050565b6000602082019050612b016000830184612add565b92915050565b6000819050919050565b612b1a81612b07565b8114612b2557600080fd5b50565b600081359050612b3781612b11565b92915050565b600060208284031215612b5357612b526129b5565b5b6000612b6184828501612b28565b91505092915050565b612b7381612b07565b82525050565b6000602082019050612b8e6000830184612b6a565b92915050565b600073ffffffffffffffffffffffffffffffffffffffff82169050919050565b6000612bbf82612b94565b9050919050565b612bcf81612bb4565b8114612bda57600080fd5b50565b600081359050612bec81612bc6565b92915050565b60008060408385031215612c0957612c086129b5565b5b6000612c1785828601612b28565b9250506020612c2885828601612bdd565b9150509250929050565b600081519050919050565b600082825260208201905092915050565b6000819050602082019050919050565b612c6781612a7a565b82525050565b600081519050919050565b600082825260208201905092915050565b60005b83811015612ca7578082015181840152602081019050612c8c565b83811115612cb6576000848401525b50505050565b6000601f19601f8301169050919050565b6000612cd882612c6d565b612ce28185612c78565b9350612cf2818560208601612c89565b612cfb81612cbc565b840191505092915050565b612d0f81612a44565b82525050565b6000612d2082612b94565b9050919050565b612d3081612d15565b82525050565b612d3f81612bb4565b82525050565b600061018083016000830151612d5e6000860182612c5e565b506020830151612d716020860182612c5e565b506040830151612d846040860182612c5e565b506060830151612d976060860182612c5e565b506080830151612daa6080860182612c5e565b5060a083015184820360a0860152612dc28282612ccd565b91505060c083015184820360c0860152612ddc8282612ccd565b91505060e0830151612df160e0860182612d06565b50610100830151612e06610100860182612d06565b50610120830151612e1b610120860182612d27565b50610140830151612e30610140860182612d36565b50610160830151612e45610160860182612d36565b508091505092915050565b6000612e5c8383612d45565b905092915050565b6000602082019050919050565b6000612e7c82612c32565b612e868185612c3d565b935083602082028501612e9885612c4e565b8060005b85811015612ed45784840389528151612eb58582612e50565b9450612ec083612e64565b925060208a01995050600181019050612e9c565b50829750879550505050505092915050565b60006020820190508181036000830152612f008184612e71565b905092915050565b600081519050919050565b600082825260208201905092915050565b6000819050602082019050919050565b606082016000820151612f4a6000850182612d36565b506020820151612f5d6020850182612c5e565b506040820151612f706040850182612d06565b50505050565b6000612f828383612f34565b60608301905092915050565b6000602082019050919050565b6000612fa682612f08565b612fb08185612f13565b9350612fbb83612f24565b8060005b83811015612fec578151612fd38882612f76565b9750612fde83612f8e565b925050600181019050612fbf565b5085935050505092915050565b600060208201905081810360008301526130138184612f9b565b905092915050565b600080fd5b600080fd5b600080fd5b60008083601f8401126130405761303f61301b565b5b8235905067ffffffffffffffff81111561305d5761305c613020565b5b60208301915083600182028301111561307957613078613025565b5b9250929050565b6000806000806000806080878903121561309d5761309c6129b5565b5b600087013567ffffffffffffffff8111156130bb576130ba6129ba565b5b6130c789828a0161302a565b9650965050602087013567ffffffffffffffff8111156130ea576130e96129ba565b5b6130f689828a0161302a565b9450945050604061310989828a01612bdd565b925050606061311a89828a01612a9b565b9150509295509295509295565b6000610180830160008301516131406000860182612c5e565b5060208301516131536020860182612c5e565b5060408301516131666040860182612c5e565b5060608301516131796060860182612c5e565b50608083015161318c6080860182612c5e565b5060a083015184820360a08601526131a48282612ccd565b91505060c083015184820360c08601526131be8282612ccd565b91505060e08301516131d360e0860182612d06565b506101008301516131e8610100860182612d06565b506101208301516131fd610120860182612d27565b50610140830151613212610140860182612d36565b50610160830151613227610160860182612d36565b508091505092915050565b6000602082019050818103600083015261324c8184613127565b905092915050565b600081519050919050565b600082825260208201905092915050565b6000819050602082019050919050565b600061328c8383612c5e565b60208301905092915050565b6000602082019050919050565b60006132b082613254565b6132ba818561325f565b93506132c583613270565b8060005b838110156132f65781516132dd8882613280565b97506132e883613298565b9250506001810190506132c9565b5085935050505092915050565b6000602082019050818103600083015261331d81846132a5565b905092915050565b61332e81612a44565b811461333957600080fd5b50565b60008135905061334b81613325565b92915050565b60008060408385031215613368576133676129b5565b5b600061337685828601612a9b565b92505060206133878582860161333c565b9150509250929050565b6060820160008201516133a76000850182612d36565b5060208201516133ba6020850182612c5e565b5060408201516133cd6040850182612d06565b50505050565b60006060820190506133e86000830184613391565b92915050565b600082825260208201905092915050565b600061340a82612c6d565b61341481856133ee565b9350613424818560208601612c89565b61342d81612cbc565b840191505092915050565b6000602082019050818103600083015261345281846133ff565b905092915050565b7f496e73756666696369656e742066756e64000000000000000000000000000000600082015250565b60006134906011836133ee565b915061349b8261345a565b602082019050919050565b600060208201905081810360008301526134bf81613483565b9050919050565b7f5061796d656e742073656e74206265666f726500000000000000000000000000600082015250565b60006134fc6013836133ee565b9150613507826134c6565b602082019050919050565b6000602082019050818103600083015261352b816134ef565b9050919050565b7f496e73756666696369656e7420766f7465730000000000000000000000000000600082015250565b60006135686012836133ee565b915061357382613532565b602082019050919050565b600060208201905081810360008301526135978161355b565b9050919050565b7f4e487b7100000000000000000000000000000000000000000000000000000000600052601160045260246000fd5b60006135d882612a7a565b91506135e383612a7a565b9250828210156135f6576135f561359e565b5b828203905092915050565b7f5041594d454e54205452414e5346455245440000000000000000000000000000600082015250565b60006136376012836133ee565b915061364282613601565b602082019050919050565b60006060820190506136626000830185612b6a565b81810360208301526136738161362a565b90506136826040830184612add565b9392505050565b7f416363657373436f6e74726f6c3a2063616e206f6e6c792072656e6f756e636560008201527f20726f6c657320666f722073656c660000000000000000000000000000000000602082015250565b60006136e5602f836133ee565b91506136f082613689565b604082019050919050565b60006020820190508181036000830152613714816136d8565b9050919050565b7f4e487b7100000000000000000000000000000000000000000000000000000000600052604160045260246000fd5b7f4e487b7100000000000000000000000000000000000000000000000000000000600052602260045260246000fd5b6000600282049050600182168061379157607f821691505b602082108114156137a5576137a461374a565b5b50919050565b7f4e487b7100000000000000000000000000000000000000000000000000000000600052603260045260246000fd5b60006137e582612a7a565b91507fffffffffffffffffffffffffffffffffffffffffffffffffffffffffffffffff8214156138185761381761359e565b5b600182019050919050565b600061382e82612a7a565b915061383983612a7a565b9250827fffffffffffffffffffffffffffffffffffffffffffffffffffffffffffffffff0382111561386e5761386d61359e565b5b828201905092915050565b7f50524f504f53414c205241495345440000000000000000000000000000000000600082015250565b60006138af600f836133ee565b91506138ba82613879565b602082019050919050565b60006060820190506138da6000830185612b6a565b81810360208301526138eb816138a2565b90506138fa6040830184612add565b9392505050565b7f50524f504f53414c20564f544500000000000000000000000000000000000000600082015250565b6000613937600d836133ee565b915061394282613901565b602082019050919050565b60006060820190506139626000830185612b6a565b81810360208301526139738161392a565b90506139826040830184612add565b9392505050565b7f436f6e747269627574696e67207a65726f206973206e6f7420616c6c6f77656460008201527f2e00000000000000000000000000000000000000000000000000000000000000602082015250565b60006139e56021836133ee565b91506139f082613989565b604082019050919050565b60006020820190508181036000830152613a14816139d8565b9050919050565b7f434f4e545249425554494f4e2052454345495645440000000000000000000000600082015250565b6000613a516015836133ee565b9150613a5c82613a1b565b602082019050919050565b6000606082019050613a7c6000830185612b6a565b8181036020830152613a8d81613a44565b9050613a9c6040830184612add565b9392505050565b7f5265656e7472616e637947756172643a207265656e7472616e742063616c6c00600082015250565b6000613ad9601f836133ee565b9150613ae482613aa3565b602082019050919050565b60006020820190508181036000830152613b0881613acc565b9050919050565b600081905092915050565b50565b6000613b2a600083613b0f565b9150613b3582613b1a565b600082019050919050565b6000613b4b82613b1d565b9150819050919050565b7f5061796d656e74206661696c6564000000000000000000000000000000000000600082015250565b6000613b8b600e836133ee565b9150613b9682613b55565b602082019050919050565b60006020820190508181036000830152613bba81613b7e565b9050919050565b7f50726f706f73616c206475726174696f6e206578706972656400000000000000600082015250565b6000613bf76019836133ee565b9150613c0282613bc1565b602082019050919050565b60006020820190508181036000830152613c2681613bea565b9050919050565b7f446f75626c6520766f74696e67206e6f7420616c6c6f77656400000000000000600082015250565b6000613c636019836133ee565b9150613c6e82613c2d565b602082019050919050565b60006020820190508181036000830152613c9281613c56565b9050919050565b600081905092915050565b7f416363657373436f6e74726f6c3a206163636f756e7420000000000000000000600082015250565b6000613cda601783613c99565b9150613ce582613ca4565b601782019050919050565b6000613cfb82612c6d565b613d058185613c99565b9350613d15818560208601612c89565b80840191505092915050565b7f206973206d697373696e6720726f6c6520000000000000000000000000000000600082015250565b6000613d57601183613c99565b9150613d6282613d21565b601182019050919050565b6000613d7882613ccd565b9150613d848285613cf0565b9150613d8f82613d4a565b9150613d9b8284613cf0565b91508190509392505050565b6000613db282612a7a565b9150613dbd83612a7a565b9250817fffffffffffffffffffffffffffffffffffffffffffffffffffffffffffffffff0483118215151615613df657613df561359e565b5b828202905092915050565b6000613e0c82612a7a565b91506000821415613e2057613e1f61359e565b5b600182039050919050565b7f537472696e67733a20686578206c656e67746820696e73756666696369656e74600082015250565b6000613e616020836133ee565b9150613e6c82613e2b565b602082019050919050565b60006020820190508181036000830152613e9081613e54565b905091905056fe44656e6965643a2055736572206973206e6f74206120636f6e7472696275746f7250726f706f73616c204372656174696f6e20416c6c6f77656420666f72205374616b65686f6c64657273206f6e6c79a26469706673582212209b3b246e0b5d98655057f526a559c21ccf708dfaaab2c5c63f64a91c503ef47c64736f6c634300080b0033",
  "immutableReferences": {
    "1553": [
      {
        "length": 32,
        "start": 2548
      },
      {
        "length": 32,
        "start": 7879
      }
    ],
    "1558": [
      {
        "length": 32,
        "start": 1514
      },
      {
        "length": 32,
        "start": 2171
      },
      {
        "length": 32,
        "start": 3861
      },
      {
        "length": 32,
        "start": 4073
      },
      {
        "length": 32,
        "start": 4558
      },
      {
        "length": 32,
        "start": 5469
      },
      {
        "length": 32,
        "start": 5788
      },
      {
        "length": 32,
        "start": 6441
      },
      {
        "length": 32,
        "start": 7518
      },
      {
        "length": 32,
        "start": 7750
      },
      {
        "length": 32,
        "start": 8201
      }
    ],
    "1561": [
      {
        "length": 32,
        "start": 7640
      }
    ],
    "1564": [
      {
        "length": 32,
        "start": 4421
      }
    ]
  },
  "source": "// SPDX-License-Identifier: MIT\r\npragma solidity ^0.8.7;\r\n\r\nimport \"@openzeppelin/contracts/access/AccessControl.sol\";\r\nimport \"@openzeppelin/contracts/security/ReentrancyGuard.sol\";\r\n\r\ncontract DominionDAO is ReentrancyGuard, AccessControl {\r\n    bytes32 private immutable CONTRIBUTOR_ROLE = keccak256(\"CONTRIBUTOR\");\r\n    bytes32 private immutable STAKEHOLDER_ROLE = keccak256(\"STAKEHOLDER\");\r\n    uint256 immutable MIN_STAKEHOLDER_CONTRIBUTION = 1 ether;\r\n    // uint32 immutable MIN_VOTE_DURATION = 1 weeks;\r\n    uint32 immutable MIN_VOTE_DURATION = 2 minutes;\r\n    uint256 totalProposals;\r\n    uint256 public daoBalance;\r\n\r\n    mapping(uint256 => ProposalStruct) private raisedProposals;\r\n    mapping(address => uint256[]) private stakeholderVotes;\r\n    mapping(uint256 => VotedStruct[]) private votedOn;\r\n    mapping(address => uint256) private contributors;\r\n    mapping(address => uint256) private stakeholders;\r\n\r\n    struct ProposalStruct {\r\n        uint256 id;\r\n        uint256 amount;\r\n        uint256 duration;\r\n        uint256 upvotes;\r\n        uint256 downvotes;\r\n        string title;\r\n        string description;\r\n        bool passed;\r\n        bool paid;\r\n        address payable beneficiary;\r\n        address proposer;\r\n        address executor;\r\n    }\r\n\r\n    struct VotedStruct {\r\n        address voter;\r\n        uint256 timestamp;\r\n        bool choosen;\r\n    }\r\n\r\n    event Action(\r\n        address indexed initiator,\r\n        bytes32 role,\r\n        string message,\r\n        address indexed beneficiary,\r\n        uint256 amount\r\n    );\r\n\r\n    modifier stakeholderOnly(string memory message) {\r\n        require(hasRole(STAKEHOLDER_ROLE, msg.sender), message);\r\n        _;\r\n    }\r\n\r\n    modifier contributorOnly(string memory message) {\r\n        require(hasRole(CONTRIBUTOR_ROLE, msg.sender), message);\r\n        _;\r\n    }\r\n\r\n    function createProposal(\r\n        string calldata title,\r\n        string calldata description,\r\n        address beneficiary,\r\n        uint256 amount\r\n    )\r\n        external\r\n        stakeholderOnly(\"Proposal Creation Allowed for Stakeholders only\")\r\n        returns (ProposalStruct memory)\r\n    {\r\n        uint256 proposalId = totalProposals++;\r\n        ProposalStruct storage proposal = raisedProposals[proposalId];\r\n\r\n        proposal.id = proposalId;\r\n        proposal.proposer = payable(msg.sender);\r\n        proposal.title = title;\r\n        proposal.description = description;\r\n        proposal.beneficiary = payable(beneficiary);\r\n        proposal.amount = amount;\r\n        proposal.duration = block.timestamp + MIN_VOTE_DURATION;\r\n\r\n        emit Action(\r\n            msg.sender,\r\n            STAKEHOLDER_ROLE,\r\n            \"PROPOSAL RAISED\",\r\n            beneficiary,\r\n            amount\r\n        );\r\n\r\n        return proposal;\r\n    }\r\n\r\n    function performVote(uint256 proposalId, bool choosen)\r\n        external\r\n        stakeholderOnly(\"Unauthorized: Stakeholders only\")\r\n        returns (VotedStruct memory)\r\n    {\r\n        ProposalStruct storage proposal = raisedProposals[proposalId];\r\n\r\n        handleVoting(proposal);\r\n\r\n        if (choosen) proposal.upvotes++;\r\n        else proposal.downvotes++;\r\n\r\n        stakeholderVotes[msg.sender].push(proposal.id);\r\n\r\n        votedOn[proposal.id].push(\r\n            VotedStruct(msg.sender, block.timestamp, choosen)\r\n        );\r\n\r\n        emit Action(\r\n            msg.sender,\r\n            STAKEHOLDER_ROLE,\r\n            \"PROPOSAL VOTE\",\r\n            proposal.beneficiary,\r\n            proposal.amount\r\n        );\r\n\r\n        return VotedStruct(msg.sender, block.timestamp, choosen);\r\n    }\r\n\r\n    function handleVoting(ProposalStruct storage proposal) private {\r\n        if (proposal.passed || proposal.duration <= block.timestamp) {\r\n            proposal.passed = true;\r\n            revert(\"Proposal duration expired\");\r\n        }\r\n\r\n        uint256[] memory tempVotes = stakeholderVotes[msg.sender];\r\n        for (uint256 votes = 0; votes < tempVotes.length; votes++) {\r\n            if (proposal.id == tempVotes[votes])\r\n                revert(\"Double voting not allowed\");\r\n        }\r\n    }\r\n\r\n    function payBeneficiary(uint256 proposalId)\r\n        external\r\n        stakeholderOnly(\"Unauthorized: Stakeholders only\")\r\n        nonReentrant\r\n        returns (uint256)\r\n    {\r\n        ProposalStruct storage proposal = raisedProposals[proposalId];\r\n        require(daoBalance >= proposal.amount, \"Insufficient fund\");\r\n\r\n        if (proposal.paid) revert(\"Payment sent before\");\r\n\r\n        if (proposal.upvotes <= proposal.downvotes)\r\n            revert(\"Insufficient votes\");\r\n\r\n        payTo(proposal.beneficiary, proposal.amount);\r\n\r\n        proposal.paid = true;\r\n        proposal.executor = msg.sender;\r\n        daoBalance -= proposal.amount;\r\n\r\n        emit Action(\r\n            msg.sender,\r\n            STAKEHOLDER_ROLE,\r\n            \"PAYMENT TRANSFERED\",\r\n            proposal.beneficiary,\r\n            proposal.amount\r\n        );\r\n\r\n        return daoBalance;\r\n    }\r\n\r\n    function contribute() external payable returns (uint256) {\r\n        require(msg.value > 0 ether, \"Contributing zero is not allowed.\");\r\n        if (!hasRole(STAKEHOLDER_ROLE, msg.sender)) {\r\n            uint256 totalContribution = contributors[msg.sender] + msg.value;\r\n\r\n            if (totalContribution >= MIN_STAKEHOLDER_CONTRIBUTION) {\r\n                stakeholders[msg.sender] = totalContribution;\r\n                _setupRole(STAKEHOLDER_ROLE, msg.sender);\r\n            }\r\n            contributors[msg.sender] += msg.value;\r\n            _setupRole(CONTRIBUTOR_ROLE, msg.sender);\r\n        } else {\r\n            contributors[msg.sender] += msg.value;\r\n            stakeholders[msg.sender] += msg.value;\r\n        }\r\n\r\n        daoBalance += msg.value;\r\n\r\n        emit Action(\r\n            msg.sender,\r\n            STAKEHOLDER_ROLE,\r\n            \"CONTRIBUTION RECEIVED\",\r\n            address(this),\r\n            msg.value\r\n        );\r\n\r\n        return daoBalance;\r\n    }\r\n\r\n    function getProposals()\r\n        external\r\n        view\r\n        returns (ProposalStruct[] memory props)\r\n    {\r\n        props = new ProposalStruct[](totalProposals);\r\n\r\n        for (uint256 i = 0; i < totalProposals; i++) {\r\n            props[i] = raisedProposals[i];\r\n        }\r\n    }\r\n\r\n    function getProposal(uint256 proposalId)\r\n        external\r\n        view\r\n        returns (ProposalStruct memory)\r\n    {\r\n        return raisedProposals[proposalId];\r\n    }\r\n\r\n    function getVotesOf(uint256 proposalId)\r\n        external\r\n        view\r\n        returns (VotedStruct[] memory)\r\n    {\r\n        return votedOn[proposalId];\r\n    }\r\n\r\n    function getStakeholderVotes()\r\n        external\r\n        view\r\n        stakeholderOnly(\"Unauthorized: not a stakeholder\")\r\n        returns (uint256[] memory)\r\n    {\r\n        return stakeholderVotes[msg.sender];\r\n    }\r\n\r\n    function getStakeholderBalance()\r\n        external\r\n        view\r\n        stakeholderOnly(\"Unauthorized: not a stakeholder\")\r\n        returns (uint256)\r\n    {\r\n        return stakeholders[msg.sender];\r\n    }\r\n\r\n    function isStakeholder() external view returns (bool) {\r\n        return stakeholders[msg.sender] > 0;\r\n    }\r\n\r\n    function getContributorBalance()\r\n        external\r\n        view\r\n        contributorOnly(\"Denied: User is not a contributor\")\r\n        returns (uint256)\r\n    {\r\n        return contributors[msg.sender];\r\n    }\r\n\r\n    function isContributor() external view returns (bool) {\r\n        return contributors[msg.sender] > 0;\r\n    }\r\n\r\n    function getBalance() external view returns (uint256) {\r\n        return contributors[msg.sender];\r\n    }\r\n\r\n    function payTo(address to, uint256 amount) internal returns (bool) {\r\n        (bool success, ) = payable(to).call{value: amount}(\"\");\r\n        require(success, \"Payment failed\");\r\n        return true;\r\n    }\r\n}\r\n",
  "sourcePath": "F:\\Pentest Document\\Development\\Blockchain\\Dapps\\Charity DAO\\CharityDAO\\src\\contracts\\DominionDAO.sol",
  "compiler": {
    "name": "solc",
    "version": "0.8.11+commit.d7f03943.Emscripten.clang"
  },
  "schemaVersion": "3.4.11",
  "updatedAt": "2023-02-20T19:39:50.628Z",
  "networkType": "ethereum",
  "devdoc": {
    "kind": "dev",
    "methods": {
      "getRoleAdmin(bytes32)": {
        "details": "Returns the admin role that controls `role`. See {grantRole} and {revokeRole}. To change a role's admin, use {_setRoleAdmin}."
      },
      "grantRole(bytes32,address)": {
        "details": "Grants `role` to `account`. If `account` had not been already granted `role`, emits a {RoleGranted} event. Requirements: - the caller must have ``role``'s admin role. May emit a {RoleGranted} event."
      },
      "hasRole(bytes32,address)": {
        "details": "Returns `true` if `account` has been granted `role`."
      },
      "renounceRole(bytes32,address)": {
        "details": "Revokes `role` from the calling account. Roles are often managed via {grantRole} and {revokeRole}: this function's purpose is to provide a mechanism for accounts to lose their privileges if they are compromised (such as when a trusted device is misplaced). If the calling account had been revoked `role`, emits a {RoleRevoked} event. Requirements: - the caller must be `account`. May emit a {RoleRevoked} event."
      },
      "revokeRole(bytes32,address)": {
        "details": "Revokes `role` from `account`. If `account` had been granted `role`, emits a {RoleRevoked} event. Requirements: - the caller must have ``role``'s admin role. May emit a {RoleRevoked} event."
      },
      "supportsInterface(bytes4)": {
        "details": "See {IERC165-supportsInterface}."
      }
    },
    "version": 1
  },
  "userdoc": {
    "kind": "user",
    "methods": {},
    "version": 1
  }
}